:100000006FC000008CC000008AC0000088C00000E3
:1000100086C0000084C0000082C0000080C00000D4
:100020007EC000007CC000007AC0000078C00000E4
:1000300076C00000CAC1000072C0000070C000009D
:100040006EC000006CC000006AC0000068C0000004
:1000500066C0000064C0000062C0000060C0000014
:100060005EC000005CC000005AC0000058C0000024
:1000700056C0000054C0000052C0000050C0000034
:100080004EC000004CC000004AC000007C17191888
:100090003C185E186A188818A218A518A918AD1877
:1000A000B118B918BD18C018C61895189A189F1815
:1000B00090188B18B518DD18E618EC186C19EF18A5
:1000C000F2186C190E191819251937195B196C19C2
:1000D00068196C19051908190B19F518FD18491933
:1000E00011241FBECFEFD0E4DEBFCDBF16E0A0E0ED
:1000F000B1E0E4E7F8E300E00BBF02C007900D9227
:10010000A432B107D9F726E0A4E2B6E001C01D92FF
:10011000A43DB207E1F70E94D3190C94381C70CFAC
:10012000CF93DF9300D000D000D0CDB7DEB7698386
:100130007A838B839C834D832E838E818823C1F0A9
:100140008D81282F30E080E091E002C0880F991F58
:100150002A95E2F79C01442737FD4095542F898169
:100160009A81AB81BC81822B932BA42BB52B19C018
:100170008D81282F30E080E091E002C0880F991F28
:100180002A95E2F7809590959C01442737FD40958C
:10019000542F89819A81AB81BC8182239323A4232C
:1001A000B523BC01CD0126960FB6F894DEBF0FBE75
:1001B000CDBFDF91CF910895CF93DF9300D000D0D2
:1001C00000D0CDB7DEB769837A838B839C834D8360
:1001D0002E838E818823C1F08D81282F30E081E02D
:1001E00090E002C0880F991F2A95E2F79C014427EE
:1001F00037FD4095542F89819A81AB81BC81822B38
:10020000932BA42BB52B19C08D81282F30E081E0D2
:1002100090E002C0880F991F2A95E2F7809590958B
:100220009C01442737FD4095542F89819A81AB81E9
:10023000BC8182239323A423B523BC01CD01269640
:100240000FB6F894DEBF0FBECDBFDF91CF910895FA
:10025000CF93DF9300D000D000D0CDB7DEB7698355
:100260007A838B839C834D832E838E818823C9F070
:100270008D81282F30E080E090E0A1E0B0E004C064
:10028000880F991FAA1FBB1F2A95D2F79C01AD01A9
:1002900089819A81AB81BC81822B932BA42BB52BB6
:1002A0001CC08D81282F30E080E090E0A1E0B0E01C
:1002B00004C0880F991FAA1FBB1F2A95D2F78095EB
:1002C0009095A095B0959C01AD0189819A81AB81F3
:1002D000BC8182239323A423B523BC01CD012696A0
:1002E0000FB6F894DEBF0FBECDBFDF91CF9108955A
:1002F000CF93DF9300D000D0CDB7DEB769837A8388
:100300008B839C8389819A81AB81BC81809300011E
:1003100090930101A0930201B09303018091000129
:1003200090910101A0910201B091030180932506F3
:1003300090932606A0932706B09328060F900F905F
:100340000F900F90DF91CF910895CF93DF93CDB7AA
:10035000DEB781E890E02BE0FC01208388E890E0A4
:100360002DE730E0FC01318320838FE690E022E02E
:10037000FC01208384E890E0FC01118210828091CE
:10038000000190910101A0910201B09103018093BD
:10039000250690932606A0932706B09328068FE59E
:1003A00090E02FE530E0F90120812068FC012083F6
:1003B000DF91CF910895CF93DF93CDB7DEB781E082
:1003C00080932406DF91CF9108951F920F920090A1
:1003D0005F000F92112400905B000F922F933F93C8
:1003E0004F935F936F937F938F939F93AF93BF933D
:1003F000EF93FF93CF93DF93CDB7DEB780912506C0
:1004000090912606A0912706B09128060197A10990
:10041000B1098093250690932606A0932706B093F2
:1004200028068091250690912606A0912706B09176
:1004300028060097A105B10589F4BDDF8091000170
:1004400090910101A0910201B091030180932506D2
:1004500090932606A0932706B0932806DF91CF91AC
:10046000FF91EF91BF91AF919F918F917F916F918C
:100470005F914F913F912F910F9000925B000F90F1
:1004800000925F000F901F901895CF93DF93CDB728
:10049000DEB781E018D0DF91CF910895CF93DF933D
:1004A000CDB7DEB784E690E0A8D088E30CD086E034
:1004B0000AD08FE008D081E006D08AE090E09DD09D
:1004C000DF91CF910895CF93DF931F92CDB7DEB721
:1004D000898382E290E022E230E0F90120812F7EE0
:1004E000FC0120838BE290E02981FC01208382E2E1
:1004F00090E022E230E0F90120812062FC012083BB
:10050000000082E290E022E230E0F90120812F7DBC
:10051000FC01208381E090E070D00F90DF91CF91BB
:100520000895CF93DF931F92CDB7DEB7898382E220
:1005300090E022E230E0F90120812061FC0120837B
:100540008BE290E02981FC01208382E290E022E2AC
:1005500030E0F90120812062FC012083000082E26A
:1005600090E022E230E0F90120812F7DFC01208320
:1005700081E090E042D00F90DF91CF910895CF932A
:10058000DF9300D000D0CDB7DEB78A837C836B8346
:100590007CDF8A81898310C0898199819F5F9983DB
:1005A00018D08B819C81FC0120818B819C810196DC
:1005B0009C838B83822FB5DF8B819C81FC018081A2
:1005C000882351F70F900F900F900F90DF91CF91EC
:1005D0000895CF93DF931F92CDB7DEB789838981CA
:1005E000813120F4898181586EDF03C08981815572
:1005F0006ADF0F90DF91CF910895CF93DF9300D002
:1006000000D000D0CDB7DEB79E838D831A821982C9
:1006100014C01C821B8206C000008B819C81019645
:100620009C838B838B819C81873023E09207A4F38A
:1006300089819A8101969A83898329813A818D8162
:100640009E81281739072CF326960FB6F894DEBF43
:100650000FBECDBFDF91CF910895CF93DF931F924F
:10066000CDB7DEB7898380910701882331F41092DA
:10067000310688E08093060154C0809107019927D4
:1006800087FD90959C012F5F3F4F8981882F90E0D7
:100690002817390751F180910701992787FD909517
:1006A0009C012E5F3F4F8981882F90E028173907E2
:1006B000E1F080910701992787FD90959C012D5FBE
:1006C0003F4F8981882F90E02817390771F080917A
:1006D0000701992787FD90959C012C5F3F4F8981E9
:1006E000882F90E02817390741F48981885080933A
:1006F000310689818093060114C0809107018430FE
:1007000034F41092310688E0809306010AC080918B
:100710000701835080933106809107018B5F80939E
:1007200006010F90DF91CF910895CF93DF9300D012
:10073000CDB7DEB78FEF9FEFAFEFB0E08093090149
:1007400090930A01A0930B01B0930C018FEF9FEFE0
:10075000AFEFB0E080930D0190930E01A0930F01D5
:10076000B09310018FEF9FEFAFEFB0E080931101D6
:1007700090931201A0931301B0931401198242C106
:1007800087E080932F06809131068A83CCC08091C8
:1007900005018130A9F48981482F50E08A81882F92
:1007A00090E066E8649F9001659F300D1124820FF0
:1007B000931F835E9E4FFC01808180932B0618C09F
:1007C000809105018230A1F48981482F50E08A810F
:1007D000882F90E064E1649F9001659F300D1124A3
:1007E000820F931F835B9A4FFC01808180932B06BD
:1007F00080912B068130A1F080912B06863081F00C
:1008000080912B06873061F080912B06843041F077
:1008100080912B06893021F080912B068A30C9F413
:1008200030912F068091090190910A01A0910B014E
:10083000B0910C0120E0432FBC01CD0171DCDC0143
:10084000CB018093090190930A01A0930B01B0930F
:100850000C0180912B068330A1F080912B0687300C
:1008600081F080912B06883061F080912B068530D5
:1008700041F080912B06893021F080912B068A303F
:10088000C9F430912F0680910D0190910E01A09135
:100890000F01B091100120E0432FBC01CD018CDC91
:1008A000DC01CB0180930D0190930E01A0930F0109
:1008B000B093100180912B068230A1F080912B061D
:1008C000843081F080912B06883061F080912B0676
:1008D000853041F080912B06893021F080912B06E4
:1008E0008A30C9F430912F06809111019091120144
:1008F000A0911301B091140120E0432FBC01CD0160
:10090000A7DCDC01CB018093110190931201A0932D
:100910001301B093140180912F06815080932F060C
:100920008A818F5F8A83809106019A81981708F4E3
:100930002ECF8981282F30E08091090190910A0102
:10094000A0910B01B0910C01220F331F220F331F16
:100950002B58394FF90180839183A283B383898116
:10096000282F30E080910D0190910E01A0910F0190
:10097000B0911001220F331F220F331F2B5A394F12
:10098000F90180839183A283B3838981282F30E08A
:100990008091110190911201A0911301B091140165
:1009A000220F331F220F331F2B5C394FF901808335
:1009B0009183A283B3838FEF9FEFAFEFB0E080937B
:1009C000090190930A01A0930B01B0930C018FEFE2
:1009D0009FEFAFEFB0E080930D0190930E01A093D5
:1009E0000F01B09310018FEF9FEFAFEFB0E0809356
:1009F000110190931201A0931301B0931401898106
:100A00008F5F89838981883008F4BACE0F900F9068
:100A1000DF91CF910895CF93DF93CDB7DEB781E01B
:100A200080932D0610922E0680910501813009F0E9
:100A300040C180910701882309F400C18091080119
:100A4000482F552747FD509580910701992787FD2D
:100A50009095019766E8649F9001659F300D112481
:100A6000820F931F835E9E4FFC018081863009F4C4
:100A7000E5C080910801992787FD9095AC01415010
:100A8000510980910701992787FD9095019766E8A4
:100A9000649F9001659F300D1124820F931F835E28
:100AA0009E4FFC018081863009F4C8C08091080106
:100AB000992787FD9095AC014F5F5F4F80910701AB
:100AC000992787FD909566E8649F9001659F300D9A
:100AD0001124820F931F835E9E4FFC018081882327
:100AE00009F4ACC080910801992787FD9095AC016D
:100AF0004F5F5F4F80910701992787FD909566E8CA
:100B0000649F9001659F300D1124820F931F835EB7
:100B10009E4FFC018081853009F490C080910801CE
:100B2000482F552747FD509580910701992787FD4C
:100B30009095019766E8649F9001659F300D1124A0
:100B4000820F931F835E9E4FFC018081833029F4C6
:100B500080910401815080930401809104018823D5
:100B600011F40E942A1581E080932A0680910801E1
:100B7000482F552747FD509580910701992787FDFC
:100B8000909566E8649F9001659F300D1124820F57
:100B9000931F835E9E4FFC0110828091080199276C
:100BA00087FD9095AC01415051098091070199272B
:100BB00087FD909566E8649F9001659F300D112434
:100BC000820F931F835E9E4FFC011082809107016C
:100BD00081508093070180910801482F552747FDD8
:100BE000509580910701992787FD909566E8649F4D
:100BF0009001659F300D1124820F931F835E9E4FDD
:100C000027E0FC01208380910801992787FD9095BA
:100C1000AC014150510980910701992787FD9095BA
:100C200066E8649F9001659F300D1124820F931F29
:100C3000835E9E4F27E0FC0120833BC0809108012A
:100C4000992787FD9095AC014F5F5F4F8091070119
:100C5000992787FD9095019766E8649F9001659FAD
:100C6000300D1124820F931F835E9E4FFC01808103
:100C7000853019F40E944F151CC0809108019927F6
:100C800087FD9095AC014F5F5F4F809107019927D9
:100C900087FD909566E8649F9001659F300D112453
:100CA000820F931F835E9E4FFC018081882309F48D
:100CB000BFD380910501823009F005C18091070101
:100CC000882309F4E4C080910801482F552747FD87
:100CD000509580910701992787FD9095019764E1D0
:100CE000649F9001659F300D1124820F931F835BD9
:100CF0009A4FFC018081863009F4C9C080910801B7
:100D0000992787FD9095AC014150510980910701C9
:100D1000992787FD9095019764E1649F9001659FF5
:100D2000300D1124820F931F835B9A4FFC01808149
:100D3000863009F4ACC080910801992787FD909511
:100D4000AC014F5F5F4F80910701992787FD909518
:100D500064E1649F9001659F300D1124820F931F01
:100D6000835B9A4FFC018081882309F490C08091B5
:100D70000801482F552747FD509580910701992775
:100D800087FD9095019764E1649F9001659F300D08
:100D90001124820F931F835B9A4FFC018081833063
:100DA00029F4809104018150809304018091040111
:100DB000882311F40E942A1581E080932A068091ED
:100DC0000801482F552747FD509580910701992725
:100DD00087FD909564E1649F9001659F300D11241B
:100DE000820F931F835B9A4FFC0110828091080150
:100DF000992787FD9095AC014150510980910701D9
:100E0000992787FD909564E1649F9001659F300D5F
:100E10001124820F931F835B9A4FFC0110828091F3
:100E2000070181508093070180910801482F5527C1
:100E300047FD509580910701992787FD909564E1C2
:100E4000649F9001659F300D1124820F931F835B77
:100E50009A4F27E0FC01208380910801992787FDA4
:100E60009095AC014150510980910701992787FD68
:100E7000909564E1649F9001659F300D1124820F6D
:100E8000931F835B9A4F27E0FC0120831CC0809155
:100E90000801992787FD9095AC014F5F5F4F8091C6
:100EA0000701992787FD909564E1649F9001659FF4
:100EB000300D1124820F931F835B9A4FFC018081B8
:100EC000882309F4B5D2DF91CF910895CF93DF93B2
:100ED000CDB7DEB710922D0681E080932E0680916B
:100EE0000501813009F010C180910701992787FD24
:100EF00090959C012F5F3F4F8091ED05882F90E0EA
:100F00002817390709F4E4C080910801482F5527B4
:100F100047FD509580910701992787FD909501968F
:100F200066E8649F9001659F300D1124820F931F26
:100F3000835E9E4FFC018081863009F4C9C0809198
:100F40000801992787FD9095AC0141505109809186
:100F50000701992787FD9095019666E8649F9001A7
:100F6000659F300D1124820F931F835E9E4FFC01FD
:100F70008081863009F4ACC080910801992787FDF3
:100F80009095AC014F5F5F4F80910701992787FDD6
:100F9000909566E8649F9001659F300D1124820F43
:100FA000931F835E9E4FFC018081882309F490C0CB
:100FB00080910801482F552747FD509580910701E2
:100FC000992787FD9095019666E8649F9001659F3B
:100FD000300D1124820F931F835E9E4FFC01808190
:100FE000833029F480910401815080930401809121
:100FF0000401882311F40E942A1581E080932A06B7
:1010000080910801482F552747FD50958091070191
:10101000992787FD909566E8649F9001659F300D44
:101020001124820F931F835E9E4FFC0110828091DA
:101030000801992787FD9095AC0141505109809195
:101040000701992787FD909566E8649F9001659F49
:10105000300D1124820F931F835E9E4FFC0110827E
:10106000809107018F5F8093070180910801482FCD
:10107000552747FD509580910701992787FD909549
:1010800066E8649F9001659F300D1124820F931FC5
:10109000835E9E4F27E0FC01208380910801992701
:1010A00087FD9095AC014150510980910701992726
:1010B00087FD909566E8649F9001659F300D11242F
:1010C000820F931F835E9E4F27E0FC0120831CC08C
:1010D00080910801992787FD9095AC014F5F5F4F84
:1010E00080910701992787FD909566E8649F90019C
:1010F000659F300D1124820F931F835E9E4FFC016C
:101100008081882309F494D180910501823009F00F
:101110000EC180910701282F332727FD309580913C
:10112000EE05882F90E02817390709F4E4C0809174
:101130000801482F552747FD5095809107019927B1
:1011400087FD9095019664E1649F9001659F300D45
:101150001124820F931F835B9A4FFC01808186309C
:1011600009F4C9C080910801992787FD9095AC01C9
:101170004150510980910701992787FD909501966B
:1011800064E1649F9001659F300D1124820F931FCD
:10119000835B9A4FFC018081863009F4ACC080915A
:1011A0000801992787FD9095AC014F5F5F4F8091B3
:1011B0000701992787FD909564E1649F9001659FE1
:1011C000300D1124820F931F835B9A4FFC018081A5
:1011D000882309F490C080910801482F552747FDC6
:1011E000509580910701992787FD9095019664E1BC
:1011F000649F9001659F300D1124820F931F835BC4
:101200009A4FFC018081833029F480910401815040
:101210008093040180910401882311F40E942A150F
:1012200081E080932A0680910801482F552747FDC9
:10123000509580910701992787FD909564E1649FFF
:101240009001659F300D1124820F931F835B9A4F8D
:10125000FC01108280910801992787FD9095AC01CF
:101260004150510980910701992787FD909564E1CC
:10127000649F9001659F300D1124820F931F835B43
:101280009A4FFC011082809107018F5F80930701C4
:1012900080910801482F552747FD509580910701FF
:1012A000992787FD909564E1649F9001659F300DBB
:1012B0001124820F931F835B9A4F27E0FC01208348
:1012C00080910801992787FD9095AC014150510903
:1012D00080910701992787FD909564E1649F9001B3
:1012E000659F300D1124820F931F835B9A4F27E077
:1012F000FC0120831CC080910801992787FD9095EF
:10130000AC014F5F5F4F80910701992787FD909552
:1013100064E1649F9001659F300D1124820F931F3B
:10132000835B9A4FFC018081882309F481D0DF918F
:10133000CF910895CF93DF93CDB7DEB781E080934F
:101340002C0680912906882309F06EC081E08093E5
:101350002A0680910501813089F58091080199273D
:1013600087FD9095AC014150510980910701992763
:1013700087FD909566E8649F9001659F300D11246C
:10138000820F931F835E9E4FFC01108280910801A3
:10139000482F552747FD509580910701992787FDD4
:1013A000909566E8649F9001659F300D1124820F2F
:1013B000931F835E9E4F27E0FC01208380910501EF
:1013C000823099F580910801992787FD9095AC01AD
:1013D0004150510980910701992787FD909564E15B
:1013E000649F9001659F300D1124820F931F835BD2
:1013F0009A4FFC01108280910801482F552747FD24
:10140000509580910701992787FD909564E1649F2D
:101410009001659F300D1124820F931F835B9A4FBB
:1014200027E0FC01208301C00000DF91CF910895E7
:10143000CF93DF93CDB7DEB780910501813009F0FE
:10144000E2C080910801992787FD9095AC014F5F1C
:101450005F4F80910701992787FD909566E8649F0B
:101460009001659F300D1124820F931F835E9E4F64
:10147000FC018081863009F46FC0809108019927B2
:1014800087FD9095AC014F5F5F4F809107019927D1
:1014900087FD909566E8649F9001659F300D11244B
:1014A000820F931F835E9E4FFC018081853009F47B
:1014B00053C081E080932A0680910801992787FD17
:1014C0009095AC014150510980910701992787FD02
:1014D000909566E8649F9001659F300D1124820FFE
:1014E000931F835E9E4FFC01108280910801482F5C
:1014F000552747FD509580910701992787FD9095C5
:1015000066E8649F9001659F300D1124820F931F40
:10151000835E9E4FFC011082809108018F5F809353
:10152000080180910801992787FD9095AC014150F1
:10153000510980910701992787FD909566E8649F7E
:101540009001659F300D1124820F931F835E9E4F83
:1015500027E0FC01208357C080910801992787FD6F
:101560009095AC014F5F5F4F80910701992787FDF0
:10157000909566E8649F9001659F300D1124820F5D
:10158000931F835E9E4FFC018081853019F40E9479
:101590004F1539C081E080932A0680910801482FB9
:1015A000552747FD509580910701992787FD909514
:1015B00066E8649F9001659F300D1124820F931F90
:1015C000835E9E4F27E0FC012083809108019927CC
:1015D00087FD9095AC0141505109809107019927F1
:1015E00087FD909566E8649F9001659F300D1124FA
:1015F000820F931F835E9E4F27E0FC012083109291
:10160000290610922C0680910501823009F011C143
:1016100080910801992787FD9095AC014F5F5F4F3E
:1016200080910701992787FD909564E1649F90015F
:10163000659F300D1124820F931F835B9A4FFC012D
:101640008081863009F46FC080910801992787FD59
:101650009095AC014F5F5F4F80910701992787FDFF
:10166000909564E1649F9001659F300D1124820F75
:10167000931F835B9A4FFC018081823009F453C031
:1016800081E080932A0680910801992787FD909533
:10169000AC014150510980910701992787FD909530
:1016A00064E1649F9001659F300D1124820F931FA8
:1016B000835B9A4FFC01108280910801482F5527C7
:1016C00047FD509580910701992787FD909564E12A
:1016D000649F9001659F300D1124820F931F835BDF
:1016E0009A4FFC011082809108018F5F809308015E
:1016F00080910801992787FD9095AC0141505109CF
:1017000080910701992787FD909564E1649F90017E
:10171000659F300D1124820F931F835B9A4F27E042
:10172000FC01208386C080910801992787FD909550
:10173000AC014F5F5F4F80910701992787FD90951E
:1017400064E1649F9001659F300D1124820F931F07
:10175000835B9A4FFC018081823091F582E0809317
:10176000080182E0809307018091040181508093F9
:10177000040180910401882309F05BC081E080931B
:1017800005011092300680913006882F90E0835139
:101790009A4FFC0180810E942D0381E080932E06E8
:1017A00010922C06109229061092340682E0809343
:1017B000070186E08093080184E08093040139C02A
:1017C00081E080932A0680910801482F552747FD24
:1017D000509580910701992787FD909564E1649F5A
:1017E0009001659F300D1124820F931F835B9A4FE8
:1017F00027E0FC01208380910801992787FD9095BF
:10180000AC014150510980910701992787FD9095BE
:1018100064E1649F9001659F300D1124820F931F36
:10182000835B9A4F27E0FC012083109229061092D7
:101830002C06DF91CF910895CF93DF93CDB7DEB71C
:1018400081E080932A0681E08093290681E08093DD
:101850002C0680910501813009F0E1C080910801DA
:1018600084300CF46CC080910801992787FD909515
:10187000AC014250510980910701992787FD90954D
:1018800066E8649F9001659F300D1124820F931FBD
:10189000835E9E4FFC018081882309F050C08091B7
:1018A0000801482F552747FD50958091070199273A
:1018B00087FD909566E8649F9001659F300D112427
:1018C000820F931F835E9E4FFC011082809108015E
:1018D000992787FD9095AC014150510980910701EE
:1018E000992787FD909566E8649F9001659F300D6C
:1018F0001124820F931F835E9E4FFC011082809102
:101900000801992787FD9095AC01435051098091BA
:101910000701992787FD909566E8649F9001659F70
:10192000300D1124820F931F835E9E4F27E0FC0130
:1019300020838091080183508093080170C08091BA
:101940000801833009F06BC080910801992787FD59
:101950009095AC014250510980910701992787FD6C
:10196000909566E8649F9001659F300D1124820F69
:10197000931F835E9E4FFC018081882309F04FC036
:1019800080910801482F552747FD50958091070108
:10199000992787FD909566E8649F9001659F300DBB
:1019A0001124820F931F835E9E4FFC011082809151
:1019B0000801992787FD9095AC014150510980910C
:1019C0000701992787FD909566E8649F9001659FC0
:1019D000300D1124820F931F835E9E4FFC011082F5
:1019E00080910801992787FD9095AC0143505109DA
:1019F00080910701992787FD909566E8649F900183
:101A0000659F300D1124820F931F835E9E4F27E048
:101A1000FC0120838091080183508093080180910C
:101A20000501823009F01DC18091080184300CF459
:101A30006CC080910801992787FD9095AC014250B8
:101A4000510980910701992787FD909564E1649F72
:101A50009001659F300D1124820F931F835B9A4F75
:101A6000FC018081882309F050C080910801482F33
:101A7000552747FD509580910701992787FD90953F
:101A800064E1649F9001659F300D1124820F931FC4
:101A9000835B9A4FFC01108280910801992787FD92
:101AA0009095AC014150510980910701992787FD1C
:101AB000909564E1649F9001659F300D1124820F21
:101AC000931F835B9A4FFC01108280910801992734
:101AD00087FD9095AC0143505109809107019927EA
:101AE00087FD909564E1649F9001659F300D1124FE
:101AF000820F931F835B9A4F27E0FC012083809124
:101B00000801835080930801ACC0809108018330A4
:101B1000C1F580910801992787FD9095AC0142504D
:101B2000510980910701992787FD909564E1649F91
:101B30009001659F300D1124820F931F835B9A4F94
:101B4000FC0180818530D9F080910801992787FDBB
:101B50009095AC014350510980910701992787FD69
:101B6000909564E1649F9001659F300D1124820F70
:101B7000931F835B9A4FFC018081853011F48FD7CE
:101B800070C080910801833009F06BC0809108011A
:101B9000992787FD9095AC0142505109809107012A
:101BA000992787FD909566E8649F9001659F300DA9
:101BB0001124820F931F835E9E4FFC018081882336
:101BC00009F04FC080910801482F552747FD5095D7
:101BD00080910701992787FD909564E1649F9001AA
:101BE000659F300D1124820F931F835B9A4FFC0178
:101BF000108280910801992787FD9095AC01415092
:101C0000510980910701992787FD909564E1649FB0
:101C10009001659F300D1124820F931F835B9A4FB3
:101C2000FC01108280910801992787FD9095AC01F5
:101C30004250510980910701992787FD909564E1F1
:101C4000649F9001659F300D1124820F931F835B69
:101C50009A4F27E0FC0120838091080182508093F5
:101C60000801DF91CF910895CF93DF93CDB7DEB711
:101C700081E08093290681E080932C068091050104
:101C8000813009F0DFC080910701992787FD909589
:101C90009C012F5F3F4F80913006882F90E0835149
:101CA0009A4FFC018081882F90E02817390709F4AA
:101CB00070C080912E06882309F46BC080910801C2
:101CC000482F552747FD509580910701992787FD9B
:101CD0009095019666E8649F9001659F300D1124F0
:101CE000820F931F835E9E4FFC018081863009F432
:101CF00050C080910801482F552747FD509580918D
:101D00000701992787FD9095019666E8649F9001E9
:101D1000659F300D1124820F931F835E9E4FFC013F
:101D200080818530B1F180910801482F552747FD0A
:101D3000509580910701992787FD909566E8649FEB
:101D40009001659F300D1124820F931F835E9E4F7B
:101D5000FC01108280910801482F552747FD5095BE
:101D600080910701992787FD9095019666E8649F09
:101D70009001659F300D1124820F931F835E9E4F4B
:101D800027E0FC012083809107018F5F809307018A
:101D900059C080910701882309F454C080912D0611
:101DA000882309F44FC080910801482F552747FD2B
:101DB000509580910701992787FD9095019766E8D6
:101DC000649F9001659F300D1124820F931F835EE5
:101DD0009E4FFC0180818630A9F180910801482F37
:101DE000552747FD509580910701992787FD9095CC
:101DF00066E8649F9001659F300D1124820F931F48
:101E0000835E9E4FFC01108280910801482F552768
:101E100047FD509580910701992787FD909501977F
:101E200066E8649F9001659F300D1124820F931F17
:101E3000835E9E4F27E0FC01208380910701815043
:101E40008093070180910501823009F0DFC0809105
:101E50000701992787FD90959C012F5F3F4F809147
:101E60003006882F90E083519A4FFC018081882FA3
:101E700090E02817390709F470C080912E06882356
:101E800009F46BC080910801482F552747FD5095F4
:101E900080910701992787FD9095019664E1649FE1
:101EA0009001659F300D1124820F931F835B9A4F21
:101EB000FC018081863009F450C080910801482FD0
:101EC000552747FD509580910701992787FD9095EB
:101ED000019664E1649F9001659F300D1124820F8B
:101EE000931F835B9A4FFC0180818530B1F1809113
:101EF0000801482F552747FD5095809107019927E4
:101F000087FD909564E1649F9001659F300D1124D9
:101F1000820F931F835B9A4FFC011082809108010E
:101F2000482F552747FD509580910701992787FD38
:101F30009095019664E1649F9001659F300D112496
:101F4000820F931F835B9A4F27E0FC0120838091CF
:101F500007018F5F8093070159C080910701882393
:101F600009F454C080912D06882309F44FC0809154
:101F70000801482F552747FD509580910701992763
:101F800087FD9095019764E1649F9001659F300DF6
:101F90001124820F931F835B9A4FFC01808186304E
:101FA000A9F180910801482F552747FD5095809150
:101FB0000701992787FD909564E1649F9001659FD3
:101FC000300D1124820F931F835B9A4FFC01108206
:101FD00080910801482F552747FD509580910701B2
:101FE000992787FD9095019764E1649F9001659F13
:101FF000300D1124820F931F835B9A4F27E0FC0161
:10200000208380910701815080930701DF91CF9158
:102010000895CF93DF93CDB7DEB781E08093340688
:1020200081E080932A0680910501813009F04BC23E
:1020300080910701992787FD90959C012E5F3F4F66
:1020400080913006882F90E083519A4FFC01808167
:10205000882F90E0281739070CF018C180912E06C0
:10206000882309F413C180912906882321F48091E3
:102070002C068823A9F180910801482F552747FD98
:10208000509580910701992787FD9095019666E804
:10209000649F9001659F300D1124820F931F835E12
:1020A0009E4FFC0180818093320680910801482F69
:1020B000552747FD509580910701992787FD9095F9
:1020C000029666E8649F9001659F300D1124820F8F
:1020D000931F835E9E4FFC0180818093330638C03E
:1020E00080910801992787FD9095AC0141505109D5
:1020F00080910701992787FD9095019666E8649F76
:102100009001659F300D1124820F931F835E9E4FB7
:10211000FC0180818093320680910801992787FD18
:102120009095AC014150510980910701992787FD95
:102130009095029666E8649F9001659F300D11248A
:10214000820F931F835E9E4FFC0180818093330634
:1021500080912906882329F480912C06882309F48C
:1021600043C080913206863009F43EC08091320629
:102170008530D1F180910801482F552747FD5095B2
:1021800080910701992787FD9095019666E8649FE5
:102190009001659F300D1124820F931F835E9E4F27
:1021A0002AE0FC012083809133068630E9F080919B
:1021B00033068530C9F080910801482F552747FD27
:1021C000509580910701992787FD9095029666E8C2
:1021D000649F9001659F300D1124820F931F835ED1
:1021E0009E4F2AE0FC01208380912906882309F074
:1021F0004DC080912C06882309F048C0809132069A
:10220000863009F443C080913206853009F43EC01F
:1022100080910801992787FD9095AC0141505109A3
:1022200080910701992787FD9095019666E8649F44
:102230009001659F300D1124820F931F835E9E4F86
:102240002AE0FC012083809133068630F9F08091EA
:1022500033068530D9F080910801992787FD909544
:10226000AC014150510980910701992787FD909554
:10227000029666E8649F9001659F300D1124820FDD
:10228000931F835E9E4F2AE0FC012083809107010B
:1022900082300CF418C180912D06882309F413C1F3
:1022A00080912906882321F480912C068823A9F1A6
:1022B00080910801482F552747FD509580910701CF
:1022C000992787FD9095019766E8649F9001659F27
:1022D000300D1124820F931F835E9E4FFC0180817D
:1022E0008093320680910801482F552747FD50956D
:1022F00080910701992787FD9095029766E8649F72
:102300009001659F300D1124820F931F835E9E4FB5
:10231000FC0180818093330638C0809108019927A1
:1023200087FD9095AC014150510980910701992793
:1023300087FD9095019766E8649F9001659F300D39
:102340001124820F931F835E9E4FFC018081809336
:10235000320680910801992787FD9095AC01415084
:10236000510980910701992787FD9095029766E8AA
:10237000649F9001659F300D1124820F931F835E2F
:102380009E4FFC018081809333068091290688232B
:1023900029F480912C06882309F443C080913206E9
:1023A000863009F43EC0809132068530D1F18091AB
:1023B0000801482F552747FD50958091070199271F
:1023C00087FD9095019766E8649F9001659F300DA9
:1023D0001124820F931F835E9E4F2AE0FC0120830D
:1023E000809133068630E9F0809133068530C9F05C
:1023F00080910801482F552747FD5095809107018E
:10240000992787FD9095029766E8649F9001659FE4
:10241000300D1124820F931F835E9E4F2AE0FC0132
:10242000208380912906882309F04DC080912C06D5
:10243000882309F048C080913206863009F443C0F1
:1024400080913206853009F43EC0809108019927B9
:1024500087FD9095AC014150510980910701992762
:1024600087FD9095019766E8649F9001659F300D08
:102470001124820F931F835E9E4F2AE0FC0120836C
:10248000809133068630F9F0809133068530D9F09B
:1024900080910801992787FD9095AC014150510921
:1024A00080910701992787FD9095029766E8649FC0
:1024B0009001659F300D1124820F931F835E9E4F04
:1024C0002AE0FC01208380910501823009F04BC293
:1024D00080910701992787FD90959C012E5F3F4FC2
:1024E00080913006882F90E083519A4FFC018081C3
:1024F000882F90E0281739070CF018C180912E061C
:10250000882309F413C180912906882321F480913E
:102510002C068823A9F180910801482F552747FDF3
:10252000509580910701992787FD9095019664E168
:10253000649F9001659F300D1124820F931F835B70
:102540009A4FFC0180818093320680910801482FC8
:10255000552747FD509580910701992787FD909554
:10256000029664E1649F9001659F300D1124820FF3
:10257000931F835B9A4FFC0180818093330638C0A0
:1025800080910801992787FD9095AC014150510930
:1025900080910701992787FD9095019664E1649FDA
:1025A0009001659F300D1124820F931F835B9A4F1A
:1025B000FC0180818093320680910801992787FD74
:1025C0009095AC014150510980910701992787FDF1
:1025D0009095029664E1649F9001659F300D1124EF
:1025E000820F931F835B9A4FFC0180818093330697
:1025F00080912906882329F480912C06882309F4E8
:1026000043C080913206863009F43EC08091320684
:102610008530D1F180910801482F552747FD50950D
:1026200080910701992787FD9095019664E1649F49
:102630009001659F300D1124820F931F835B9A4F89
:102640002AE0FC012083809133068630E9F08091F6
:1026500033068530C9F080910801482F552747FD82
:10266000509580910701992787FD9095029664E126
:10267000649F9001659F300D1124820F931F835B2F
:102680009A4F2AE0FC01208380912906882309F0D3
:102690004DC080912C06882309F048C080913206F5
:1026A000863009F443C080913206853009F43EC07B
:1026B00080910801992787FD9095AC0141505109FF
:1026C00080910701992787FD9095019664E1649FA9
:1026D0009001659F300D1124820F931F835B9A4FE9
:1026E0002AE0FC012083809133068630F9F0809146
:1026F00033068530D9F080910801992787FD9095A0
:10270000AC014150510980910701992787FD9095AF
:10271000029664E1649F9001659F300D1124820F41
:10272000931F835B9A4F2AE0FC012083809107016D
:1027300082300CF418C180912D06882309F413C14E
:1027400080912906882321F480912C068823A9F101
:1027500080910801482F552747FD5095809107012A
:10276000992787FD9095019764E1649F9001659F8B
:10277000300D1124820F931F835B9A4FFC018081DF
:102780008093320680910801482F552747FD5095C8
:1027900080910701992787FD9095029764E1649FD6
:1027A0009001659F300D1124820F931F835B9A4F18
:1027B000FC0180818093330638C0809108019927FD
:1027C00087FD9095AC0141505109809107019927EF
:1027D00087FD9095019764E1649F9001659F300D9E
:1027E0001124820F931F835B9A4FFC018081809399
:1027F000320680910801992787FD9095AC014150E0
:10280000510980910701992787FD9095029764E10E
:10281000649F9001659F300D1124820F931F835B8D
:102820009A4FFC018081809333068091290688238A
:1028300029F480912C06882309F443C08091320644
:10284000863009F43EC0809132068530D1F1809106
:102850000801482F552747FD50958091070199277A
:1028600087FD9095019764E1649F9001659F300D0D
:102870001124820F931F835B9A4F2AE0FC0120836F
:10288000809133068630E9F0809133068530C9F0B7
:1028900080910801482F552747FD509580910701E9
:1028A000992787FD9095029764E1649F9001659F49
:1028B000300D1124820F931F835B9A4F2AE0FC0195
:1028C000208380912906882309F04DC080912C0631
:1028D000882309F048C080913206863009F443C04D
:1028E00080913206853009F43EC080910801992715
:1028F00087FD9095AC0141505109809107019927BE
:1029000087FD9095019764E1649F9001659F300D6C
:102910001124820F931F835B9A4F2AE0FC012083CE
:10292000809133068630F9F0809133068530D9F0F6
:1029300080910801992787FD9095AC01415051097C
:1029400080910701992787FD9095029764E1649F24
:102950009001659F300D1124820F931F835B9A4F66
:102960002AE0FC012083DF91CF910895CF93DF937C
:1029700000D0CDB7DEB7198264C0809131068A835A
:1029800057C080910501813031F58981482F50E091
:102990008A81882F90E066E8649F9001659F300DE2
:1029A0001124820F931F835E9E4FFC0180818A3029
:1029B00091F48981482F50E08A81882F90E066E861
:1029C000649F9001659F300D1124820F931F835ED9
:1029D0009E4FFC01108280910501823031F5898182
:1029E000482F50E08A81882F90E064E1649F900135
:1029F000659F300D1124820F931F835B9A4FFC015A
:102A000080818A3091F48981482F50E08A81882F13
:102A100090E064E1649F9001659F300D1124820F66
:102A2000931F835B9A4FFC0110828A818F5F8A8398
:102A3000809106019A81981708F4A3CF89818F5F4E
:102A400089838981883008F498CF0F900F90DF91A7
:102A5000CF910895CF93DF93CDB7DEB781E0809318
:102A600005011092300680913006882F90E0835146
:102A70009A4FFC0180810E942D0381E080932E06F5
:102A800010922C06109229061092340682E0809350
:102A9000070186E080930801DF91CF910895CF93DD
:102AA000DF93CDB7DEB780910501813069F482E014
:102AB0008093050182E08093070182E08093080102
:102AC00081E0809330060FC080910501823059F477
:102AD00081E0809305018DE68093070186E0809375
:102AE000080110923006DF91CF910895CF93DF93C4
:102AF00000D01F92CDB7DEB71A82198288E290E02B
:102B000023E0FC0120831A82198223C088E290E02E
:102B100021E0FC01208386E290E0FC018081882F87
:102B200090E080959095959587959595879581707E
:102B30008B8389819A818C53994F2B81FC0120834F
:102B400088E290E0FC01108289819A8101969A8343
:102B5000898389819A8180319105C4F288E290E06D
:102B600021E0FC0120830F900F900F90DF91CF9117
:102B70000895CF93DF93CDB7DEB72C970FB6F894B7
:102B8000DEBF0FBECDBF6D837E838F83988729877D
:102B90003A874B875C878D819E81AF81B885298577
:102BA0003A854B855C85BC01CD013AD6DC01CB0171
:102BB00089839A83AB83BC8389819A81AB81BC81F1
:102BC0000097A105B10529F489859A85AB85BC8557
:102BD00011C089859A85AB85BC858D839E83AF8323
:102BE000B88789819A81AB81BC8189879A87AB87B5
:102BF000BC87D1CFBC01CD012C960FB6F894DEBFB7
:102C00000FBECDBFDF91CF910895CF93DF9300D05A
:102C10001F92CDB7DEB78B831A82198227C082E25A
:102C200090E028E0FC01208382E290E022E230E0A4
:102C3000F9012081422F2B81222F30E0098002C030
:102C4000359527950A94E2F72170242BFC01208307
:102C500082E290E022E230E0F90120812260FC0172
:102C6000208389819A8101969A83898389819A81B7
:102C700088309105A4F282E290E022E230E0F9018E
:102C800020812460FC01208382E290E0FC0110821C
:102C90000F900F900F90DF91CF910895CF93DF9316
:102CA00000D000D000D0CDB7DEB76B837C838D839E
:102CB0009E831A82198229C085E290E028E0FC01F7
:102CC000208325E230E085E290E0FC0140818B81A9
:102CD0009C81AD81BE81098004C0B695A79597956A
:102CE00087950A94D2F78170842BF901808385E25D
:102CF00090E025E230E0F90120812260FC01208390
:102D000089819A8101969A83898389819A81883100
:102D1000910594F285E290E025E230E0F90120810E
:102D20002460FC01208385E290E0FC01108226965D
:102D30000FB6F894DEBF0FBECDBFDF91CF910895DF
:102D4000CF93DF9300D0CDB7DEB79A83898380918C
:102D50003006882F90E083519A4FFC0180810E94B9
:102D60002D0389819A818130910551F0823091053E
:102D700061F0009799F481E090E09A83898314C010
:102D800082E090E09A8389830FC01A821982809131
:102D90002A06882341F00E94950305C01A821982F1
:102DA0000E94950301C0000089819A8181309105BC
:102DB00079F18230910509F453C0009709F078C089
:102DC00080919506883018F01092950672C0809117
:102DD0009506882F90E08B5E9E4FFC01808115DF69
:102DE00080919506882F90E0880F991F880F991F72
:102DF0008B58994FFC0180819181A281B381BC01E4
:102E0000CD014CDF809195068F5F8093950651C070
:102E100080919606883018F0109296064AC08091EC
:102E20009606882F90E08B5E9E4FFC018081EDDE40
:102E300080919606882F90E0880F991F880F991F20
:102E40008B5A994FFC0180819181A281B381BC0191
:102E5000CD0124DF809196068F5F8093960629C06E
:102E600080919706883018F01092970622C08091C2
:102E70009706882F90E08B5E9E4FFC018081C5DE17
:102E800080919706882F90E0880F991F880F991FCF
:102E90008B5C994FFC0180819181A281B381BC013F
:102EA000CD01FCDE809197068F5F8093970601C06D
:102EB000000089819A810F900F90DF91CF91089542
:102EC000CF93DF9300D0CDB7DEB79A8389830EDE30
:102ED00089819A81AA2797FDA095BA2F40E050E0FA
:102EE00024E130E0841B950B2817390708F44BC107
:102EF0008A5B9F4FFC01B6C48091C606882329F0E7
:102F00008DE090E09A83898344C1809129068823CB
:102F100009F07CC08091C406882331F185E090E0FF
:102F20009A8389838091CA06882321F083E190E007
:102F30009A8389838091CB06882321F082E190E0F7
:102F40009A8389838091CD06882321F08CE090E0DC
:102F50009A8389838091C506882309F419C188E082
:102F600090E09A83898314C18091C506882301F17A
:102F700087E090E09A8389838091C406882329F0B2
:102F800088E090E09A83898303C18091C9068823F1
:102F900029F08BE090E09A838983FAC08091CA0679
:102FA000882309F4F5C084E190E09A838983F0C016
:102FB0008091CD06882329F086E090E09A8389836A
:102FC000E7C08091CA06882329F081E090E09A83C7
:102FD0008983DEC08091CB06882329F082E090E0CF
:102FE0009A838983D5C08091C806882329F083E01D
:102FF00090E09A838983CCC08091C906882309F424
:10300000C7C084E090E09A838983C2C08091C506DE
:10301000882329F087E090E09A838983B9C0809162
:10302000CD06882309F4B4C086E090E09A838983B2
:10303000AFC08091C406882329F083E190E09A8391
:103040008983A7C08091C506882351F081E08093D1
:103050002D0610922E0684E190E09A83898399C010
:103060008091CA06882329F081E090E09A838983C1
:1030700090C01A8219828DC08091C406882349F0BD
:1030800080912906882329F482E190E09A8389833C
:1030900080C08091C506882329F087E090E09A835C
:1030A000898377C08091CB06882329F082E090E065
:1030B0009A8389836EC01A8219826BC08091C80678
:1030C000882329F083E090E09A83898362C01A8282
:1030D00019825FC08091C906882349F08091C50696
:1030E000882329F484E090E09A83898352C08091F8
:1030F000C506882351F081E080932C0610922906A2
:103100008BE090E09A83898344C01A82198241C07F
:103110001A8219823EC08FE090E09A83898339C079
:103120008FE090E09A83898334C080E190E09A83B5
:1031300089832FC081E190E09A8389832AC01A8213
:10314000198227C01A82198224C010DC1A821982BF
:1031500020C00CDC1A8219821CC008DC1A82198279
:1031600018C004DC1A82198214C000DC1A82198289
:1031700010C0FCDB1A8219820CC01A82198209C0A5
:103180001A82198206C01A82198203C0000001C087
:10319000000089819A81AA2797FDA095BA2F40E067
:1031A00050E024E130E0841B950B2817390708F420
:1031B00091C0855A9F4FFC0155C3809129068823F1
:1031C00011F410922A060E94180A87C081E08093A9
:1031D0002D060E940B0581C00E9466077EC00E94DA
:1031E0009A097BC00E941C0C78C081E080932E0657
:1031F00010922D060E941C0C70C081E080932D0659
:1032000010922E060E941C0C68C00E94340E65C0ED
:103210000E94340E62C00E94340E5FC0809134065A
:10322000882311F40E94091081E08093340655C070
:1032300081E080932C0680913406882311F40E944B
:10324000091081E08093340648C010922D0681E079
:1032500080932E0681E080932C068091340688238B
:1032600011F40E94091081E08093340636C081E099
:1032700080932D0610922E0681E080932C0680917B
:103280003406882311F40E94091081E080933406EB
:1032900024C081E080932D0610922E0681E0809359
:1032A0002C0680913406882311F40E94091081E0D5
:1032B0008093340612C081E080932C0680913406FE
:1032C000882311F40E94091081E08093340605C020
:1032D000C1DB03C0000001C0000089819A810F900A
:1032E0000F90DF91CF910895CF93DF9300D0CDB7AA
:1032F000DEB79A83898389819A81009719F41A82AB
:10330000198203C01A821982000089819A8100976C
:1033100039F480913406882331F01092340603C0CA
:103320001092340601C0000089819A810F900F909D
:10333000DF91CF910895CF93DF9300D0CDB7DEB763
:103340009A83898389819A81009719F41A82198254
:1033500003C01A821982000089819A810097D9F4EA
:1033600080910401882349F46DEF75E081E10E94AA
:10337000BF0284E0809304010FC067E076E081E142
:103380000E94BF0285E10E94E90280910401805DF4
:103390000E94910201C0000089819A810F900F90D4
:1033A000DF91CF9108950F931F93CF93DF93CDB704
:1033B000DEB7E6970FB6F894DEBF0FBECDBF84E24E
:1033C00090E02FEFFC01208385E290E0FC01108269
:1033D00081E290E02FEFFC01208382E290E0FC018B
:1033E000108287E290E023E0FC01208388E290E0F5
:1033F0002CEFFC0120838AE290E02FEFFC01208378
:103400008BE290E0FC0110820E944E028BE096E07D
:103410009C838B838B819C81BC0181E00E94BF02D5
:1034200081E0809305011092300680913006882F4C
:1034300090E083519A4FFC0180810E942D0381E02E
:1034400080932E0610922C061092290610923406B4
:1034500081E090E0A0E0B0E08D839E83AF83B887E9
:1034600084EF91E0A0E0B0E089879A87AB87BC87C2
:103470008BE490E0A0E0B0E08D879E87AF87B88BAB
:1034800088EE93E0A0E0B0E0898B9A8BAB8BBC8B8D
:1034900081E090E0A0E0B0E08D8B9E8BAF8BB88F89
:1034A0002D853E854F8558898D819E81AF81B88558
:1034B000BC01CD015EDBDC01CB018D8B9E8BAF8B24
:1034C000B88F29853A854B855C858D899E89AF8922
:1034D000B88DBC01CD014DDBDC01CB018D8B9E8B0A
:1034E000AF8BB88F29893A894B895C898D899E89F0
:1034F000AF89B88DBC01CD013CDBDC01CB018D8BEC
:103500009E8BAF8BB88F8D899E89AF89B88D898F3F
:103510009A8FAB8FBC8F8D819E81AF81B885298DAD
:103520003A8D4B8D5C8DBC01CD017AD12D8F3E8FB4
:103530004F8F58A389859A85AB85BC85298D3A8D97
:103540004B8D5C8DBC01CD016BD129A33AA34BA35C
:103550005CA38D859E85AF85B889298D3A8D4B8D6D
:103560005C8DBC01CD015CD12DA33EA34FA358A718
:1035700089899A89AB89BC89298D3A8D4B8D5C8D5F
:10358000BC01CD014DD129A73AA74BA75CA788E084
:10359000EBE1F6E0DE019F9601900D928A95E1F74E
:1035A00084E090E09EA78DA78FEF809398068D8D85
:1035B0009E8DAF8DB8A18093990690939A06A093A3
:1035C0009B06B0939C068D8D9E8DAF8DB8A1809388
:1035D0009D0690939E06A0939F06B093A00680EA56
:1035E00096E19093A2068093A1068FEF8093A306A5
:1035F00089A19AA1ABA1BCA18093A4069093A50632
:10360000A093A606B093A70689A19AA1ABA1BCA1DD
:103610008093A8069093A906A093AA06B093AB0640
:1036200084E799E19093AD068093AC068FEF809389
:10363000AE068DA19EA1AFA1B8A58093AF069093D1
:10364000B006A093B106B093B2068DA19EA1AFA122
:10365000B8A58093B3069093B406A093B506B09333
:10366000B60680E697E19093B8068093B7068FEF91
:103670008093B90689A59AA5ABA5BCA58093BA0687
:103680009093BB06A093BC06B093BD0689A59AA5EE
:10369000ABA5BCA58093BE069093BF06A093C006C1
:1036A000B093C1068BE999E19093C3068093C2065B
:1036B000898D9A8DAB8DBC8DBC01CD010E947801A6
:1036C0000E94A5011A8219829BC089819A81880F64
:1036D000991F9E012F5F3F4F820F931F8E96FC0113
:1036E00080819181FC0125813681478150858981C6
:1036F0009A81880F991FBE016F5F7F4F860F971FBA
:103700008E96FC0180819181FC0181819281A3814F
:10371000B481281739074A075B0709F045C089813A
:103720009A81880F991F9E012F5F3F4F820F931F31
:103730008E96FC010081118189819A81880F991FE1
:103740009E012F5F3F4F820F931F8E96FC01808159
:103750009181FC012185328589819A81880F991F89
:10376000AE014F5F5F4F840F951F8E96FC018081E5
:103770009181FC018081992787FD9095F901099538
:10378000F801808389819A81880F991F9E012F5F9C
:103790003F4F820F931F8E96FC0180819181FC0127
:1037A000158216821782108689819A81880F991F47
:1037B0009E012F5F3F4F820F931F8E96FC01208149
:1037C000318189819A81880F991FAE014F5F5F4FC8
:1037D000840F951F8E96FC0180819181FC0185816B
:1037E0009681A781B0850196A11DB11DF901858340
:1037F0009683A783B08789819A8101969A8389836A
:1038000029813A818DA59EA52817390708F45DCF37
:103810000000809124068823E1F31092240652CF01
:10382000A1E21A2EAA1BBB1BFD010DC0AA1FBB1FC4
:10383000EE1FFF1FA217B307E407F50720F0A21B36
:10384000B30BE40BF50B661F771F881F991F1A94A3
:1038500069F760957095809590959B01AC01BD01CD
:10386000CF010895EE0FFF1F0590F491E02D09940C
:04387000F894FFCFFA
:10387400010000000401080106FFFFFF00FFFFFF35
:1038840000FFFFFF00804020100804020100000038
:103894000000000000000000000000000000000024
:1038A400000000000000000000000600000000000E
:1038B4000000000000000000000000000000000004
:1038C40000000000000000000003000000000000F1
:1038D40000000000000000000000000000000000E4
:1038E40000000000000006060000000000000000C8
:1038F400000600000000000000000606060606069A
:103904000606060606060606060606060606060653
:103914000606060000000000000000000000000091
:103924000000000000000000000000000000000093
:10393400060000000000000000000000000000007D
:103944000000000000000000000000000000000370
:103954000000000000000000000000000000000063
:10396400000000000000000000000000050000004E
:10397400000000000000000600000000000000003D
:103984000500000009000000000000000000000025
:103994000006000000000000050000000000000018
:1039A4000000000000000000000000000000000013
:1039B40000000000000006000000000000000000FD
:1039C40000000000000000000000000000000000F3
:1039D40000060606060606060000000000000000B9
:1039E40000000000000000000000000000000000D3
:1039F40000000500000000000000000000060000B8
:103A0400000000000000050000000000000900099B
:103A14000000000000000006000000000000050097
:103A24000000000000000000000000000000000092
:103A3400000000000000000000000000060000007C
:103A44000000000000000000000000000000000072
:103A54000000000000000600000000000000060056
:103A64000000000000000000000000000000000052
:103A74000000000606060606060606060600000006
:103A840000000006060600000606060606060606F0
:103A9400060000000000000000000400000604000E
:103AA4000000060606000000000000000000000000
:103AB4000000000000000000000000000000000002
:103AC40000000500000000090000000900000009D2
:103AD40000000009000000000006060600000000C7
:103AE40000000000000606060606000000000000B4
:103AF400000000000000000606060606060606068C
:103B0400000000060606000000060606000000008D
:103B14000000060603000300060606060000000077
:103B24000004040600060600000006000700010069
:103B3400000000010000000001000000000100007E
:103B44000000010000000000050009000000000959
:103B54000000000900030009000000090003000040
:103B6400000000000000000300000000000000004E
:103B74000000000000000003000000060606060620
:103B84000606060606060300000000000000000307
:103B940006060600000000070606000900000900EA
:103BA40000090000000000040406000000000000FA
:103BB40006000700090000000009000000000900D9
:103BC40000000009000000000900000000000500DA
:103BD40000000000000000000000000300000000DE
:103BE40000000003000000000000000000030000CB
:103BF40000000000000000000000000000030006B8
:103C04000606060606060606060606060300000065
:103C14000000000000030606060000000007060678
:103C24000000000000000000000000000004040682
:103C34000000000000000606060606060606060644
:103C44000606060606060606060606060606060610
:103C54000606060606060606060606060606060600
:103C640006060606060606060606060606060606F0
:103C740006060606060606060606060606060606E0
:103C840006060606060606060606060606060606D0
:103C940006060606050606060606060606060606C1
:103CA40006060606060606060606060606060606B0
:103CB40006060606060606060606060606000000B2
:103CC40000000000000000000000000000050505E1
:103CD40006000907000900000900000009000000AF
:103CE40000000000060000070000000000000000C3
:103CF40000000000000003060000000000000000B7
:103D0400000000000000000000000300000606069A
:103D14000606060606000006060600000606060657
:103D24000600000300030000000000000300000080
:103D34000003000006020202020202020202020260
:103D44000202020202020606020000000000000055
:103D54000000000000000000000000000086144481
:103D6400414747455200505552504C4500594F5514
:103D7400204C4F5345210048503A003E3E53494D94
:103D8400504C4556414E49413C3C009806A306AE72
:043D940006B9060066
:00000001FF
